{
  "_format": "hh-sol-artifact-1",
  "contractName": "Token",
  "sourceName": "contracts/Agreed_Token.sol",
  "abi": [
    {
      "inputs": [],
      "stateMutability": "nonpayable",
      "type": "constructor"
    },
    {
      "anonymous": false,
      "inputs": [
        {
          "indexed": true,
          "internalType": "address",
          "name": "owner",
          "type": "address"
        },
        {
          "indexed": true,
          "internalType": "address",
          "name": "spender",
          "type": "address"
        },
        {
          "indexed": false,
          "internalType": "uint256",
          "name": "value",
          "type": "uint256"
        }
      ],
      "name": "Approval",
      "type": "event"
    },
    {
      "anonymous": false,
      "inputs": [
        {
          "indexed": true,
          "internalType": "address",
          "name": "previousOwner",
          "type": "address"
        },
        {
          "indexed": true,
          "internalType": "address",
          "name": "newOwner",
          "type": "address"
        }
      ],
      "name": "OwnershipTransferred",
      "type": "event"
    },
    {
      "anonymous": false,
      "inputs": [
        {
          "indexed": true,
          "internalType": "address",
          "name": "from",
          "type": "address"
        },
        {
          "indexed": true,
          "internalType": "address",
          "name": "to",
          "type": "address"
        },
        {
          "indexed": false,
          "internalType": "uint256",
          "name": "value",
          "type": "uint256"
        }
      ],
      "name": "Transfer",
      "type": "event"
    },
    {
      "inputs": [
        {
          "internalType": "address",
          "name": "owner",
          "type": "address"
        },
        {
          "internalType": "address",
          "name": "spender",
          "type": "address"
        }
      ],
      "name": "allowance",
      "outputs": [
        {
          "internalType": "uint256",
          "name": "",
          "type": "uint256"
        }
      ],
      "stateMutability": "view",
      "type": "function"
    },
    {
      "inputs": [
        {
          "internalType": "address",
          "name": "spender",
          "type": "address"
        },
        {
          "internalType": "uint256",
          "name": "amount",
          "type": "uint256"
        }
      ],
      "name": "approve",
      "outputs": [
        {
          "internalType": "bool",
          "name": "",
          "type": "bool"
        }
      ],
      "stateMutability": "nonpayable",
      "type": "function"
    },
    {
      "inputs": [
        {
          "internalType": "address",
          "name": "account",
          "type": "address"
        }
      ],
      "name": "balanceOf",
      "outputs": [
        {
          "internalType": "uint256",
          "name": "",
          "type": "uint256"
        }
      ],
      "stateMutability": "view",
      "type": "function"
    },
    {
      "inputs": [],
      "name": "decimals",
      "outputs": [
        {
          "internalType": "uint8",
          "name": "",
          "type": "uint8"
        }
      ],
      "stateMutability": "view",
      "type": "function"
    },
    {
      "inputs": [
        {
          "internalType": "address",
          "name": "spender",
          "type": "address"
        },
        {
          "internalType": "uint256",
          "name": "subtractedValue",
          "type": "uint256"
        }
      ],
      "name": "decreaseAllowance",
      "outputs": [
        {
          "internalType": "bool",
          "name": "",
          "type": "bool"
        }
      ],
      "stateMutability": "nonpayable",
      "type": "function"
    },
    {
      "inputs": [
        {
          "internalType": "address",
          "name": "_holder",
          "type": "address"
        }
      ],
      "name": "getRank",
      "outputs": [
        {
          "internalType": "enum Token.UserRank",
          "name": "",
          "type": "uint8"
        }
      ],
      "stateMutability": "view",
      "type": "function"
    },
    {
      "inputs": [
        {
          "internalType": "address",
          "name": "_holder",
          "type": "address"
        },
        {
          "internalType": "enum Token.UserRank",
          "name": "_rank",
          "type": "uint8"
        }
      ],
      "name": "hasRank",
      "outputs": [
        {
          "internalType": "bool",
          "name": "",
          "type": "bool"
        }
      ],
      "stateMutability": "view",
      "type": "function"
    },
    {
      "inputs": [
        {
          "internalType": "address",
          "name": "spender",
          "type": "address"
        },
        {
          "internalType": "uint256",
          "name": "addedValue",
          "type": "uint256"
        }
      ],
      "name": "increaseAllowance",
      "outputs": [
        {
          "internalType": "bool",
          "name": "",
          "type": "bool"
        }
      ],
      "stateMutability": "nonpayable",
      "type": "function"
    },
    {
      "inputs": [],
      "name": "name",
      "outputs": [
        {
          "internalType": "string",
          "name": "",
          "type": "string"
        }
      ],
      "stateMutability": "view",
      "type": "function"
    },
    {
      "inputs": [],
      "name": "owner",
      "outputs": [
        {
          "internalType": "address",
          "name": "",
          "type": "address"
        }
      ],
      "stateMutability": "view",
      "type": "function"
    },
    {
      "inputs": [
        {
          "internalType": "address",
          "name": "",
          "type": "address"
        }
      ],
      "name": "rank",
      "outputs": [
        {
          "internalType": "enum Token.UserRank",
          "name": "",
          "type": "uint8"
        }
      ],
      "stateMutability": "view",
      "type": "function"
    },
    {
      "inputs": [],
      "name": "renounceOwnership",
      "outputs": [],
      "stateMutability": "nonpayable",
      "type": "function"
    },
    {
      "inputs": [
        {
          "internalType": "uint256",
          "name": "_firstValue",
          "type": "uint256"
        },
        {
          "internalType": "uint256",
          "name": "_secondValue",
          "type": "uint256"
        }
      ],
      "name": "restrictedDiamond",
      "outputs": [
        {
          "internalType": "uint256",
          "name": "",
          "type": "uint256"
        }
      ],
      "stateMutability": "view",
      "type": "function"
    },
    {
      "inputs": [
        {
          "internalType": "uint256",
          "name": "_firstValue",
          "type": "uint256"
        },
        {
          "internalType": "uint256",
          "name": "_secondValue",
          "type": "uint256"
        }
      ],
      "name": "restrictedGold",
      "outputs": [
        {
          "internalType": "uint256",
          "name": "",
          "type": "uint256"
        }
      ],
      "stateMutability": "view",
      "type": "function"
    },
    {
      "inputs": [
        {
          "internalType": "uint256",
          "name": "_firstValue",
          "type": "uint256"
        },
        {
          "internalType": "uint256",
          "name": "_secondValue",
          "type": "uint256"
        }
      ],
      "name": "restrictedPlatinum",
      "outputs": [
        {
          "internalType": "uint256",
          "name": "",
          "type": "uint256"
        }
      ],
      "stateMutability": "view",
      "type": "function"
    },
    {
      "inputs": [
        {
          "internalType": "uint256",
          "name": "_firstValue",
          "type": "uint256"
        },
        {
          "internalType": "uint256",
          "name": "_secondValue",
          "type": "uint256"
        }
      ],
      "name": "restrictedSilver",
      "outputs": [
        {
          "internalType": "uint256",
          "name": "",
          "type": "uint256"
        }
      ],
      "stateMutability": "view",
      "type": "function"
    },
    {
      "inputs": [],
      "name": "symbol",
      "outputs": [
        {
          "internalType": "string",
          "name": "",
          "type": "string"
        }
      ],
      "stateMutability": "view",
      "type": "function"
    },
    {
      "inputs": [],
      "name": "totalSupply",
      "outputs": [
        {
          "internalType": "uint256",
          "name": "",
          "type": "uint256"
        }
      ],
      "stateMutability": "view",
      "type": "function"
    },
    {
      "inputs": [
        {
          "internalType": "address",
          "name": "recipient",
          "type": "address"
        },
        {
          "internalType": "uint256",
          "name": "amount",
          "type": "uint256"
        }
      ],
      "name": "transfer",
      "outputs": [
        {
          "internalType": "bool",
          "name": "",
          "type": "bool"
        }
      ],
      "stateMutability": "nonpayable",
      "type": "function"
    },
    {
      "inputs": [
        {
          "internalType": "address",
          "name": "sender",
          "type": "address"
        },
        {
          "internalType": "address",
          "name": "recipient",
          "type": "address"
        },
        {
          "internalType": "uint256",
          "name": "amount",
          "type": "uint256"
        }
      ],
      "name": "transferFrom",
      "outputs": [
        {
          "internalType": "bool",
          "name": "",
          "type": "bool"
        }
      ],
      "stateMutability": "nonpayable",
      "type": "function"
    },
    {
      "inputs": [
        {
          "internalType": "address",
          "name": "newOwner",
          "type": "address"
        }
      ],
      "name": "transferOwnership",
      "outputs": [],
      "stateMutability": "nonpayable",
      "type": "function"
    },
    {
      "stateMutability": "payable",
      "type": "receive"
    }
  ],
  "bytecode": "0x60806040523480156200001157600080fd5b5060408051808201825260068152651059dc99595960d21b6020808301918252835180850190945260048452631051d49160e21b9084015281519192916200005c91600391620001fc565b50805162000072906004906020840190620001fc565b5050506200008f62000089620000be60201b60201c565b620000c2565b620000b833620000a26012600a620003b7565b620000b2906305f5e100620003cf565b62000114565b62000448565b3390565b600580546001600160a01b038381166001600160a01b0319831681179093556040519116919082907f8be0079c531659141344cd1fd0a4f28419497f9722a3daafe3b4186f6b6457e090600090a35050565b6001600160a01b0382166200016f5760405162461bcd60e51b815260206004820152601f60248201527f45524332303a206d696e7420746f20746865207a65726f206164647265737300604482015260640160405180910390fd5b8060026000828254620001839190620003f1565b90915550506001600160a01b03821660009081526020819052604081208054839290620001b2908490620003f1565b90915550506040518181526001600160a01b038316906000907fddf252ad1be2c89b69c2b068fc378daa952ba7f163c4a11628f55a4df523b3ef9060200160405180910390a35050565b8280546200020a906200040c565b90600052602060002090601f0160209004810192826200022e576000855562000279565b82601f106200024957805160ff191683800117855562000279565b8280016001018555821562000279579182015b82811115620002795782518255916020019190600101906200025c565b50620002879291506200028b565b5090565b5b808211156200028757600081556001016200028c565b634e487b7160e01b600052601160045260246000fd5b600181815b80851115620002f9578160001904821115620002dd57620002dd620002a2565b80851615620002eb57918102915b93841c9390800290620002bd565b509250929050565b6000826200031257506001620003b1565b816200032157506000620003b1565b81600181146200033a5760028114620003455762000365565b6001915050620003b1565b60ff841115620003595762000359620002a2565b50506001821b620003b1565b5060208310610133831016604e8410600b84101617156200038a575081810a620003b1565b620003968383620002b8565b8060001904821115620003ad57620003ad620002a2565b0290505b92915050565b6000620003c860ff84168362000301565b9392505050565b6000816000190483118215151615620003ec57620003ec620002a2565b500290565b60008219821115620004075762000407620002a2565b500190565b600181811c908216806200042157607f821691505b6020821081036200044257634e487b7160e01b600052602260045260246000fd5b50919050565b6111f180620004586000396000f3fe60806040526004361061013e5760003560e01c8063715018a6116100bb578063a9059cbb1161007f578063f2fde38b11610059578063f2fde38b146103fa578063f7ae399f1461041a578063f8f88dc21461043a57600080fd5b8063a9059cbb14610374578063b22a1e2914610394578063dd62ed3e146103b457600080fd5b8063715018a6146102e05780638da5cb5b146102f7578063938165781461031f57806395d89b411461033f578063a457c2d71461035457600080fd5b8063313ce56711610102578063313ce56714610208578063373b4e80146102245780633950935114610244578063548c0ef41461026457806370a08231146102aa57600080fd5b806306fdde031461014a578063095ea7b3146101755780630b3f15bb146101a557806318160ddd146101d357806323b872dd146101e857600080fd5b3661014557005b600080fd5b34801561015657600080fd5b5061015f61046a565b60405161016c9190610e41565b60405180910390f35b34801561018157600080fd5b50610195610190366004610eb2565b6104fc565b604051901515815260200161016c565b3480156101b157600080fd5b506101c56101c0366004610edc565b610516565b60405190815260200161016c565b3480156101df57600080fd5b506002546101c5565b3480156101f457600080fd5b50610195610203366004610efe565b6105a6565b34801561021457600080fd5b506040516012815260200161016c565b34801561023057600080fd5b506101c561023f366004610edc565b61067a565b34801561025057600080fd5b5061019561025f366004610eb2565b6106a3565b34801561027057600080fd5b5061029d61027f366004610f3a565b6001600160a01b031660009081526006602052604090205460ff1690565b60405161016c9190610f72565b3480156102b657600080fd5b506101c56102c5366004610f3a565b6001600160a01b031660009081526020819052604090205490565b3480156102ec57600080fd5b506102f56106e2565b005b34801561030357600080fd5b506005546040516001600160a01b03909116815260200161016c565b34801561032b57600080fd5b5061019561033a366004610f9a565b610748565b34801561034b57600080fd5b5061015f610792565b34801561036057600080fd5b5061019561036f366004610eb2565b6107a1565b34801561038057600080fd5b5061019561038f366004610eb2565b610833565b3480156103a057600080fd5b506101c56103af366004610edc565b610849565b3480156103c057600080fd5b506101c56103cf366004610fd5565b6001600160a01b03918216600090815260016020908152604080832093909416825291909152205490565b34801561040657600080fd5b506102f5610415366004610f3a565b610872565b34801561042657600080fd5b506101c5610435366004610edc565b61093d565b34801561044657600080fd5b5061029d610455366004610f3a565b60066020526000908152604090205460ff1681565b60606003805461047990611008565b80601f01602080910402602001604051908101604052809291908181526020018280546104a590611008565b80156104f25780601f106104c7576101008083540402835291602001916104f2565b820191906000526020600020905b8154815290600101906020018083116104d557829003601f168201915b5050505050905090565b60003361050a818585610966565b60019150505b92915050565b33600090815260066020526040812054600490819060ff168181111561053e5761053e610f5c565b60ff1610156105945760405162461bcd60e51b815260206004820152601460248201527f4869676865722072616e6b20726571756972656400000000000000000000000060448201526064015b60405180910390fd5b61059e8385611058565b949350505050565b6001600160a01b03831660009081526001602090815260408083203384529091528120548281101561062b5760405162461bcd60e51b815260206004820152602860248201527f45524332303a207472616e7366657220616d6f756e74206578636565647320616044820152676c6c6f77616e636560c01b606482015260840161058b565b6001600160a01b03851660009081526001602090815260408083203384529091528120805485929061065e908490611077565b9091555061066f9050858585610a8a565b506001949350505050565b33600090815260066020526040812054600390819060ff16600481111561053e5761053e610f5c565b3360008181526001602090815260408083206001600160a01b038716845290915281205490919061050a90829086906106dd90879061108e565b610966565b6005546001600160a01b0316331461073c5760405162461bcd60e51b815260206004820181905260248201527f4f776e61626c653a2063616c6c6572206973206e6f7420746865206f776e6572604482015260640161058b565b6107466000610aae565b565b600081600481111561075c5761075c610f5c565b6001600160a01b03841660009081526006602052604090205460ff16600481111561078957610789610f5c565b10159392505050565b60606004805461047990611008565b3360008181526001602090815260408083206001600160a01b0387168452909152812054909190838110156108265760405162461bcd60e51b815260206004820152602560248201527f45524332303a2064656372656173656420616c6c6f77616e63652062656c6f77604482015264207a65726f60d81b606482015260840161058b565b61066f8286868403610966565b6000610840338484610a8a565b50600192915050565b33600090815260066020526040812054600290819060ff16600481111561053e5761053e610f5c565b6005546001600160a01b031633146108cc5760405162461bcd60e51b815260206004820181905260248201527f4f776e61626c653a2063616c6c6572206973206e6f7420746865206f776e6572604482015260640161058b565b6001600160a01b0381166109315760405162461bcd60e51b815260206004820152602660248201527f4f776e61626c653a206e6577206f776e657220697320746865207a65726f206160448201526564647265737360d01b606482015260840161058b565b61093a81610aae565b50565b33600090815260066020526040812054600190819060ff16600481111561053e5761053e610f5c565b6001600160a01b0383166109c85760405162461bcd60e51b8152602060048201526024808201527f45524332303a20617070726f76652066726f6d20746865207a65726f206164646044820152637265737360e01b606482015260840161058b565b6001600160a01b038216610a295760405162461bcd60e51b815260206004820152602260248201527f45524332303a20617070726f766520746f20746865207a65726f206164647265604482015261737360f01b606482015260840161058b565b6001600160a01b0383811660008181526001602090815260408083209487168084529482529182902085905590518481527f8c5be1e5ebec7d5bd14f71427d1e84f3dd0314c0f7b2291e5b200ac8c7c3b925910160405180910390a3505050565b610a95838383610b0d565b610a9e83610cdb565b50610aa882610cdb565b50505050565b600580546001600160a01b0383811673ffffffffffffffffffffffffffffffffffffffff19831681179093556040519116919082907f8be0079c531659141344cd1fd0a4f28419497f9722a3daafe3b4186f6b6457e090600090a35050565b6001600160a01b038316610b715760405162461bcd60e51b815260206004820152602560248201527f45524332303a207472616e736665722066726f6d20746865207a65726f206164604482015264647265737360d81b606482015260840161058b565b6001600160a01b038216610bd35760405162461bcd60e51b815260206004820152602360248201527f45524332303a207472616e7366657220746f20746865207a65726f206164647260448201526265737360e81b606482015260840161058b565b6001600160a01b03831660009081526020819052604090205481811015610c4b5760405162461bcd60e51b815260206004820152602660248201527f45524332303a207472616e7366657220616d6f756e7420657863656564732062604482015265616c616e636560d01b606482015260840161058b565b6001600160a01b03808516600090815260208190526040808220858503905591851681529081208054849290610c8290849061108e565b92505081905550826001600160a01b0316846001600160a01b03167fddf252ad1be2c89b69c2b068fc378daa952ba7f163c4a11628f55a4df523b3ef84604051610cce91815260200190565b60405180910390a3610aa8565b600080610cea6012600a61118a565b6001600160a01b038416600090815260208190526040902054610d0d9190611199565b905060648110158015610d2257506103e88111155b15610d4b576001600160a01b0383166000908152600660205260409020805460ff191660011790555b6103e881118015610d5e57506127108111155b15610d87576001600160a01b0383166000908152600660205260409020805460ff191660021790555b61271081118015610d9b5750620186a08111155b15610dc4576001600160a01b0383166000908152600660205260409020805460ff191660031790555b620186a0811115610df7576001600160a01b0383166000908152600660205260409020805460ff19166004179055610e21565b6064811015610e21576001600160a01b0383166000908152600660205260409020805460ff191690555b50506001600160a01b031660009081526006602052604090205460ff1690565b600060208083528351808285015260005b81811015610e6e57858101830151858201604001528201610e52565b81811115610e80576000604083870101525b50601f01601f1916929092016040019392505050565b80356001600160a01b0381168114610ead57600080fd5b919050565b60008060408385031215610ec557600080fd5b610ece83610e96565b946020939093013593505050565b60008060408385031215610eef57600080fd5b50508035926020909101359150565b600080600060608486031215610f1357600080fd5b610f1c84610e96565b9250610f2a60208501610e96565b9150604084013590509250925092565b600060208284031215610f4c57600080fd5b610f5582610e96565b9392505050565b634e487b7160e01b600052602160045260246000fd5b6020810160058310610f9457634e487b7160e01b600052602160045260246000fd5b91905290565b60008060408385031215610fad57600080fd5b610fb683610e96565b9150602083013560058110610fca57600080fd5b809150509250929050565b60008060408385031215610fe857600080fd5b610ff183610e96565b9150610fff60208401610e96565b90509250929050565b600181811c9082168061101c57607f821691505b60208210810361103c57634e487b7160e01b600052602260045260246000fd5b50919050565b634e487b7160e01b600052601160045260246000fd5b600081600019048311821515161561107257611072611042565b500290565b60008282101561108957611089611042565b500390565b600082198211156110a1576110a1611042565b500190565b600181815b808511156110e15781600019048211156110c7576110c7611042565b808516156110d457918102915b93841c93908002906110ab565b509250929050565b6000826110f857506001610510565b8161110557506000610510565b816001811461111b576002811461112557611141565b6001915050610510565b60ff84111561113657611136611042565b50506001821b610510565b5060208310610133831016604e8410600b8410161715611164575081810a610510565b61116e83836110a6565b806000190482111561118257611182611042565b029392505050565b6000610f5560ff8416836110e9565b6000826111b657634e487b7160e01b600052601260045260246000fd5b50049056fea26469706673582212208d02f49cd7a777185a6bba9691f166e51bce9aefca18f54646834b1c8a88e54964736f6c634300080d0033",
  "linkReferences": {},
  "deployedLinkReferences": {}
}